:020000040800F2
:1000000040980020D5010008DB420008853C00082C
:10001000D942000889070008B9570008000000000D
:100020000000000000000000000000002D52000849
:100030002F09000800000000D74300082F520008D5
:10004000EF010008EF010008EF010008EF010008D0
:10005000EF010008EF010008EF010008E90C0008BB
:10006000EF010008EF010008EF0100087508000823
:10007000EF010008EF010008EF010008EF010008A0
:10008000EF010008EF010008EF010008EF01000890
:10009000EF010008EF010008EF010008EF01000880
:1000A000EF01000879520008EF010008EF01000895
:1000B00085520008EF010008EF010008EF01000879
:1000C000EF010008953C0008893C0008EF0100089A
:1000D000EF010008EF010008EF010008EF01000840
:1000E000E10C0008EF010008EF010008EF01000833
:1000F000EF010008EF010008EF0100080000000018
:10010000EF010008EF010008EF01000811470008A7
:10011000EF010008EF010008EF010008EF010008FF
:10012000EF010008EF010008EF010008EF010008EF
:10013000EF010008EF010008EF010008EF010008DF
:10014000EF010008EF010008EF010008EF010008CF
:10015000EF010008EF010008EF010008EF010008BF
:10016000EF010008EF010008EF010008EF010008AF
:10017000EF010008EF01000800000000EF01000897
:10018000EF010008EF010008EF010008EF0100088F
:10019000EF010008EF01000800000000000000006F
:1001A0000000000000000000EF010008EF0100085F
:1001B000EF010008EF01000881080008DFF810D007
:1001C00000F0E2F800480047355E0008AFF3008019
:1001D000409800200648804706480047FEE7FEE7B3
:1001E000FEE7FEE7FEE7FEE7FEE7FEE7FEE7FEE7E7
:1001F00035520008BD0100082DE9F05F05460020DA
:1002000092469B4688460646814640241BE0284687
:1002100041464746224600F0A6F853465A46C01AC1
:10022000914110D311461846224600F08DF82D1A40
:1002300067EB01084F4622460120002100F084F8B8
:1002400017EB00094E41201EA4F10104DFDC4846F3
:1002500031462A46434600F000B830BCBDE8C09F96
:1002600040EA01039B0703D009E008C9121F08C038
:10027000042AFAD203E011F8013B00F8013B521EB8
:10028000F9D27047D2B201E000F8012B491EFBD22F
:1002900070470022F6E710B513460A460446194691
:1002A000FFF7F0FF204610BD30B505462A460B4645
:1002B00012F8010B13F8014B08B1A042F8D01CB1A1
:1002C000002802D06D1CF1E7284630BD10B5044669
:1002D00004E00B7800F8013B03B1491C521EF8D230
:1002E000204610BD421C10F8011B0029FBD1801ACA
:1002F0007047034611F8012B00F8012B002AF9D1B1
:100300001846704770B500B91068002512E00B461A
:1003100002E0A64203D05B1C1C78002CF9D1E3B2AA
:100320002B4305D02CB125B1002100F8011B04E0BE
:100330000546401C0678002EE9D11060284670BDA5
:10034000004ADFE77C000020202A04DB203A00FA84
:1003500002F1002070479140C2F1200320FA03F31C
:10036000194390407047202A04DB203A21FA02F01A
:100370000021704721FA02F3D040C2F120029140DF
:100380000843194670470000064C074D06E0E06838
:1003900040F0010394E8070098471034AC42F6D3CC
:1003A000FFF710FF70650008A065000870B50446EF
:1003B00015460E460846FFF795FF81B2D4F8203166
:1003C0003046D4F8F8289847002821DD4FF4FA6623
:1003D000D4F8243131462846D4F8F8289847044602
:1003E000401EB04212D2B44200D1641E00202855F3
:1003F00009A12846FFF758FF08B1002070BD09A1E8
:100400002846FFF751FF08B1052070BD241D01D01B
:10041000042070BD062070BD0D0A4F4B0D0A3E2012
:10042000000000000D0A4552524F520070B50C46B4
:1004300000252DA1801CFFF783FF002852D02A46FB
:100440006D1CEDB20C2A40D2DFE802F0060A11174B
:100450001D23262B2E31343A01462122204603E06B
:100460000146212204F12100FFF730FF2DE0002199
:1004700003F090FF84F8420027E0002103F08AFF98
:1004800084F8430021E0002103F084FF84F8470052
:100490001BE004F1480101E004F14C0103F01EFFF0
:1004A00013E004F15001F9E704F15401F6E704F117
:1004B0005801F3E7002103F06DFF84F8440004E0E5
:1004C000002103F067FF84F8460007A10020FFF732
:1004D00037FF002806D010F8011C2C29AFD16D1C65
:1004E000EDB2ACE770BD00002C00000070B50A460C
:1004F000054600241DA1901C33E02146641CE4B293
:1005000007292CD2DFE801F004080D12171C220085
:1005100001462022284620E00146182205F120004D
:100520001BE00146102205F1380016E001461022BA
:1005300005F1480011E00146102205F158000CE0D9
:10054000002103F027FFC5F8880008E008A1FFF7A5
:10055000F7FE0146202205F16800FFF7B7FE03A170
:100560000020FFF7EDFE0028C7D170BD2C00000071
:100570000D0000002DE9F04704461F4691468846CD
:100580000846089EFFF7AEFE85B2E8072ED1D4F8E4
:10059000203129464046D4F8F828984780B2A8422E
:1005A00028D1D4F8203139464846D4F8F82898475D
:1005B000B8421BD1D4F8243100213046D4F8F828B1
:1005C0009847002810DD002131540BA13046FFF779
:1005D0006BFE10B10020BDE8F0870AA13046FFF79E
:1005E00063FE18B10520F6E7001D01D00220F2E7F6
:1005F0000620F0E70420EEE70D0A4F4B0D0A3E20DF
:10060000000000000D0A4552524F520070B586B0EE
:100610000D46040018D12448C16C41F00201C164A8
:10062000C16C01F002010591C16C41F00201C1648D
:10063000C16C01F002010591016E41F48041016637
:10064000006E00F48040059018480226694630F894
:100650001400CDE900060020CDE902061348001D74
:1006600030F814000490124850F8240001F0F8F912
:100670000E486946801C30F81400CDE900060B488E
:10068000801D30F8140004900948001D50F8240023
:1006900001F0E6F90648001F50F8240028602846BB
:1006A00003F0DBF906B070BD0010024008650008D9
:1006B0007000002000B587B040B90D49CA6C42F007
:1006C0000202CA64C96C01F002010591094951F89E
:1006D000201000910121019100210291022103913A
:1006E000054951F82000694601F0BAF907B000BD8C
:1006F00000100240106500086400002030B5044678
:100700001D4887B0C26C42F00402C264C06C1C4B2E
:1007100000F00400059019480122F1B101291AD115
:1007200030F8140000900320CDE902201548019014
:1007300053F82400694601F093F9104D0022AD1CD6
:100740000F2115F8140040B201F04AFC15F814000E
:1007500040B201F037FC07B030BD30F81400009013
:100760000020CDE901020220039053F824006946DD
:1007700001F076F9EFE70000001002400465000880
:100780006800002000001110FEE710B5806A032108
:10079000016500F05FFD10BD10B5806A00F05AFEE3
:1007A00010BD10B5806A00F05BFE10BD154988428F
:1007B00001D10020704713492031884201D1012026
:1007C000704710494031884201D1022070470D49DD
:1007D0008031884201D1042070470A49A031884203
:1007E00001D1052070470749C031884201D1062058
:1007F00070470449E031884201D107207047032047
:100800007047000000600140426B0168002A0A68DE
:1008100011D022F001020A6001680A6842F4002245
:100820000A6001680A6842F001020A6090F84C1000
:10083000032904D010E042F400320A600CE0816B1E
:1008400021B901680A6842F002020A6090F840107B
:1008500001290AD00121816490F84C10012906D0A9
:100860005FF0040180F84C107047416CF3E70221FF
:10087000F8E70000014800F0D4BE0000E4170020B3
:10088000014800F061BE0000E41700200D4B416CF0
:10089000026821F003019A4201D20B4B01E00A4B9E
:1008A0001C3319448164D1B214220839B1FBF2F12E
:1008B000054A8032C26401F01F02012191400165A6
:1008C0007047000008040240000802400179074A0E
:1008D00002EB81024265054A4432491E826501F0FD
:1008E000030201219140C16570470000FC080240ED
:1008F00030B5D0E913456560446D14B1D0E91645B3
:10090000656090F8444004F01C050124AC40056C7F
:100910006C60046863608368102B036803D099607F
:100920000068C26030BD9A600068C16030BD704729
:100930002DE9F0411D4616460446002939D0BEB3C4
:100940000A4604F594701CA1074604F0D1FF3A460C
:1009500011462046FFF72AFD002827D1324618A16C
:10096000384604F0C5FF3A4611462046FFF71EFD03
:1009700000281BD184F88C502A4613A1384604F075
:10098000B7FF3A4611462046FFF710FD00280DD16B
:100990000FA1384604F0ACFF3A4611462046FFF757
:1009A00005FD002802D1012184F8D210BDE8F081B4
:1009B000FFE70220FAE7000043313D25730D0000F8
:1009C00043323D25730D000043333D25640D000087
:1009D00043300D0070B504460E4600F594700AA130
:1009E000054604F085FF2A4611462046FFF7DEFC47
:1009F000050007D105A104F59570FFF7A1FC31466C
:100A000003F085FC284670BD5A350D000D0A000024
:100A100070B5044600F5947008A1064604F068FF1E
:100A2000324611462046FFF7C1FC050004D104F10F
:100A30008D013046FFF7FAFC284670BD433F0D009C
:100A400070B5044647F23050C4F8F8080225D4F8CF
:100A500014110020884760B904F59472164606A167
:100A60002046FFF7A3FC050003D131462046FFF7DF
:100A70003DFD284670BD0000493F0D0A0000000002
:100A800070B5044600F594700BA1054604F030FFE4
:100A90002A4611462046FFF789FC38B994F82A11F6
:100AA00004F1D200312904D00021017094F8D20061
:100AB00070BD0121F9E7000043530D0030B5DDE9B9
:100AC000035458B151B14AB145B13CB1C0F82441C9
:100AD00000F58A7080E82E00002030BD022030BD75
:100AE0002DE9F84FDDE90A761D469246814606B9A2
:100AF00001264FF49660854200D305460A4609F563
:100B000094703D8019A1804604F0F2FE42461146E1
:100B10004846FFF74BFC04001AD1324615A1404667
:100B200004F0E6FE424611464846FFF73FFC04004B
:100B30000ED12A4611A1404604F0DAFE2B46524659
:100B400041464846CDF80080FFF714FD040002D06E
:100B5000022C06D007E00CA14046FFF7A5FB10B120
:100B6000022400203880204600F012B850303D2585
:100B7000640D000053323D256C750D0053333D2547
:100B80003034640D000000002D310D0A000000001B
:100B900018BCBDE8E08F00007CB5054608780C461F
:100BA00008B1032801D1A08850B305F59470A2784C
:100BB00039A1064604F09CFE324611462846FFF74E
:100BC000F5FB00281DD1227835A1304604F090FEB7
:100BD000324611462846FFF7E9FB002811D1E2888A
:100BE00031A1304604F084FE324611462846FFF714
:100BF000DDFB002805D1207820B1032802D03FE09A
:100C000002207CBDA2882AA1304604F071FE324643
:100C100011462846FFF7CAFB0028F2D1207808B118
:100C200003282DD1E17AA07ACDE90001637A227AF6
:100C300021A1304604F05CFE324611462846FFF7FB
:100C4000B5FB0028DDD12078032819D162781EA1D8
:100C5000304604F04DFE324611462846FFF7A6FB0B
:100C60000028CED1207803280AD119A1304604F0FB
:100C70003FFE324611462846FFF798FB0028C0D1B8
:100C800015A1304604F034FE324602B02846BDE8D5
:100C900070401146FFF78ABB50303D25640D0000BF
:100CA00050313D25640D000050323D25640D00009B
:100CB00050343D25640D000050333D25642E2564DD
:100CC0002E25642E25640D0050393D25640D00004D
:100CD00050423D300D00000050363D310D00000007
:100CE0004FF4005000F0B0BE022000F0ADBE72B66E
:100CF000FEE700002DE9F04186B000270E46804651
:100D0000049700F077F8040001D016A003E000F08B
:100D100079FE18B117A004F0DBFD1EE0404600F09C
:100D20008DF9054608EB0600401E00F087F9461BCA
:100D30004046761C00F05CF901AA009782E8610049
:100D400004A9684600F082FD28B100F0F5FD0FA06F
:100D500004F0BEFD012400F0F5FD06B02046BDE81C
:100D6000F081000063616E6E6F7420696E69740AB1
:100D7000000000004552524F522063616E6E6F7446
:100D800020756E6C6F636B0A000000004552524F75
:100D90005220666C6173682065726173650A000099
:100DA000124A117F1248012901D003290BD103688F
:100DB00043F400630360036823F400630360036883
:100DC00043F400730360022901D003290BD10168A9
:100DD00041F480510160016821F480510160016893
:100DE00041F48061016000201077704744000020CA
:100DF0000020024010B5012400F004FE08B10BA051
:100E00000EE01349886940F0704088614CF2FA3076
:100E1000086148F29100086100F094FD18B10DA03E
:100E200004F056FD00E00024204610BD464C41531E
:100E3000485F49665F496E6974203A206661696C53
:100E4000656420746F20756E6C6F636B0A00000020
:100E500000200240464C4153485F49665F496E6935
:100E600074203A206661696C656420746F206C6F31
:100E7000636B0A000C490A6A520210D5C20703D0FC
:100E80004A6942F004024A61800703D5486940F488
:100E900000404861486940F48030486170474869C3
:100EA00048F204021043F4E7002002400D4A136A9E
:100EB0005B0201D5C90703D0516921F4006102E04A
:100EC000516941F400615161516960F3CA01516196
:100ED000506940F002005061506940F48030506128
:100EE0007047000000200240054910B54C6944F0ED
:100EF00001044C610260BFF36F8F436010BD0000BE
:100F000000200240094A10B55469802344F480242B
:100F10005461EFF3108272B610C910C05B1E13F05B
:100F2000FF03F9D182F3108810BD000000200240B9
:100F300070B5054600F094FE0646134C08E0681CA8
:100F400006D000F08DFE801BA84201D3032070BDA7
:100F50002069C003F3D420690C4908400CD00C4927
:100F60004A6802434A60010F01D0A169A1610101F1
:100F700000D02061012070BD2069C00701D0012090
:100F80002061002070BD000000200240FAC3020072
:100F9000440000202DE9F04716468946804600248B
:100FA000FFF728FF050020D100F02CFDC0B1012083
:100FB000BDE8F08709EBC4074146D7E900230020CC
:100FC00000F0CAFC38B9D7E90023D8E90001504045
:100FD0005940084301D0012505E008F10808641CC8
:100FE000B4EBD60FE6D300F0ADFC2846E0E70000F6
:100FF00030B5104909684FF40014CD050E494FF083
:1010000000630A686FEA020189B20AD409B11104C7
:101010008C0903EB5401814201D9012030BD02202B
:1010200030BD09B111048C0903EB54018142F6D89B
:10103000F3E7000000000140E075FF1F30B50F49E5
:101040004FF400130968CA431404240C0CD00C0498
:101050005FEA94144FF0006505EB5404844205D90F
:10106000A0F10060000B30BD1C46F3E71204120C27
:1010700001D009048B09A0EB5300F1E7E075FF1FD5
:1010800070B5040006D02068FFF790FB374D55F887
:10109000200008B1012070BD204600F06FF83448F0
:1010A0000168491C016000683249012819D13248A1
:1010B000026822F0804202600268A3681A4302605C
:1010C000026822F47F0202602279012A05D10268B7
:1010D000A38901EB03431A430260026842F0004215
:1010E00002602068026822F471420260226810687F
:1010F00023691843D4E90536334318431060206848
:10110000026822F00F020260D4E90720024320683F
:1011100003681A4302602068826822F45F028260DA
:1011200020688268636A1A43238D01EB03410A43F6
:1011300082602068416801F007014160E06A216B2C
:10114000000240EAC1012068426811434160206802
:10115000016841F080010160012084F834002068BA
:10116000FFF724FB45F82040002070BD90180020B8
:10117000400000200000FFFF0060014030B5ABB030
:10118000142125A8FFF785F894216846FFF781F818
:101190001B4C6068002830D14FF48030002500904F
:1011A0002195684600F062FF08B1FFF7A0FD2168B5
:1011B0001448491C2160012907D1016E41F080715A
:1011C0000166016E01F080712A91C16C41F010013D
:1011D000C164C06C25A900F010002A904FF4207063
:1011E00025900220CDE926050620CDE928500648A5
:1011F00000F036FC6068401C60602BB030BD000021
:101200002C000020001002400010004870B590F83B
:101210004C400023C4B1FF2C16D0046825680C4E46
:101220003540256004686FF30F01012A256804D05A
:1012300045EA01212160026307E04FF4802646EA77
:1012400001210D432560F6E70123184670BD00001B
:10125000FFFFFBF87047000070B5040031D03C4937
:101260002068884205D1606801282AD0E0680128FA
:1012700027D00125002065642063A56420652046F1
:1012800000F06CF82068016821F400210160207AE8
:1012900001282068016816D021F000510160607AB1
:1012A00001282068016811D021F400110160206834
:1012B000016847F6087291430160E068022808D08F
:1012C0000CE0012070BD41F00051E7E741F400114E
:1012D000ECE720680168626911430160207C012805
:1012E000206801682ED021F010010160607C012887
:1012F0002068016829D021F020010160206841693F
:10130000144A1140416120684169E269124B11435E
:10131000228C03EB0242636A5B1E1A431143416154
:1013200060686063E068A063A069E063207C84F883
:1013300040002068016841F00101016084F84C50D0
:10134000002070BD41F01001CFE741F02001D4E74B
:101350000061014000FF001C0000FFFF70B5B0B04D
:101360000646142125A8FEF794FF94216846FEF74F
:1013700090FF324C0025606878BB4FF480300090BD
:101380002195684600F072FE08B1FFF7B0FC2168B5
:101390002B48491C2160012907D1016E41F0807161
:1013A0000166016E01F080712E91C16C41F0100157
:1013B000C164C06C25A900F010002E904FF420707D
:1013C00025900220CDE926050620CDE928501D48AC
:1013D00000F046FB6068401C60601B493068884232
:1013E00029D11B4C194820605620C4E901058020F2
:1013F000C4E90350800060618000A0612020C4E93E
:101400000705204600F06AF908B1FFF770FC4FF4B9
:101410000030CDE92A5001208DF8B0508DF8B10090
:101420002D902AA90A4800F065F808B1FFF75FFC83
:10143000F462B462A66230B070BD00002C000020DF
:101440000010024000100048006101400800024006
:10145000E417002001490120487070471000002067
:1014600001490120087070471000002070B50E007F
:1014700004464FF000052ED06AB320680068800251
:1014800029D5606B30B9206B20B9A06AC06940B122
:10149000202820D094F84C00012805D0032803D040
:1014A00019E0012A17D1F5E7A16A0F48C862A16ABD
:1014B0000E484863A06AC16920290FD0002101634A
:1014C0002168134632461C31A06A00F067F938B132
:1014D000FF2084F84C000125284670BD0449EEE742
:1014E0002046FFF791F9F7E7990700088B070008F6
:1014F000A307000810B590F82520012A01D001208B
:1015000010BD90F82420012A1AD0012200F8242FBF
:101510000B784A680B4C42EA03628B8904EBC343A5
:101520000C7A497A43EA04431A4342EA4122416A67
:101530000B68DBB21A430A6000210170084610BD37
:10154000022010BD0000F8FF10B50446C06C006812
:10155000216D08420FD0A06C016821F480710160F8
:10156000D4E913014160E06B40F40070E063616B0B
:1015700009B120468847606D002816D0A16D096822
:10158000E26D114211D0016821F480710160D4E94B
:1015900016014160E06B40F48060E063616B0029FC
:1015A00003D02046BDE81040084710BD10B590F8A4
:1015B00025100024022903D00421C16301242BE05B
:1015C00001680A6822F00E020A6001680A6822F0C7
:1015D00001020A60816C0A6822F480720A6090F845
:1015E0004410036C01F01C01012202FA01F1596060
:1015F000D0E913134B60416D31B10B6823F4807354
:101600000B60D0E916134B6080F82520002180F88C
:101610002410816B01B18847204610BD90F8250049
:101620007047F0B4016C0C6801680D6890F84420B4
:1016300002F01C06042202FA06F3234211D06B07C3
:101640000FD50B689B0603D40B6823F004030B60D3
:1016500090F8441001F01C018A40016C4A60016B53
:101660001DE0022303FA06F727424FF0000C4FF06B
:10167000010218D0AF0716D50C68A40605D40C6873
:1016800024F00A040C6080F8252090F8441001F042
:101690001C018B40016C4B6080F824C0C16A00299A
:1016A0001AD0F0BC08470823B340234214D02B07BC
:1016B00012D50B6823F00E030B6090F84410036CF6
:1016C00001F01C0102FA01F15960C26380F8252083
:1016D00080F824C0416BE2E7F0BC704770B50400AD
:1016E0000CD02B4A21681420914209D2294A0A447D
:1016F000B2FBF0F08000606427480AE0012070BD72
:10170000234A52420A44B2FBF0F080006064204851
:1017100008382064022084F825000A6847F6F07033
:101720008243D4E902031843D4E904352B43184318
:10173000A3691843E3691843236A184310430860F8
:101740002046FFF7A3F8A0680025B0F5804F00D130
:101750006560A16C20790860D4E91301416060687C
:10176000401E032808D82046FFF7B0F8606D0560DA
:10177000D4E91601416002E06565A565E565E563AC
:10178000012084F8250084F82450002070BD00005A
:1017900008040240F8FFFDBF0000024070B5044697
:1017A00090F82400002501280CD0012084F82400A2
:1017B00094F825600020012E06D084F8240002252C
:1017C000284670BD022070BD022684F82560E063C3
:1017D0002068066826F0010606602046FFF788F8B4
:1017E000206B00282068016802D041F00E0106E05D
:1017F00021F0040101602068016841F00A010160E4
:10180000A06C0168C90303D5016841F480710160CF
:10181000606D18B1016841F4807101602068016851
:1018200041F001010160CBE770B5044600F018FA01
:101830000546601C02D004480078044400F010FA09
:10184000401BA042FAD370BD340000202DE9F05FA8
:10185000054635488946017801290CD00127804684
:1018600007704CF2503B5846FFF762FB06004FF002
:10187000000A03D053E0022000F05AB85146404617
:10188000C8F804A0294C226892050ED5216821F4DD
:10189000007121602168490505D5216821F4806126
:1018A0002160032109E0077708E02268520504D58A
:1018B000216821F4806121600221017728680128D4
:1018C00007D04FF0FF31C9F8001040F2FA7BAF6843
:1018D0001EE06868FFF7CEFA5846FFF729FB064678
:1018E000606948F204018843606116E0384669681F
:1018F000FFF7DCFA4CF25030FFF71AFB0600606984
:1019000020EA0B00606102D0C9F8007005E07F1C7E
:10191000D5E902010844B842E8D8FFF741FA88F84F
:1019200000A03046A8E7000044000020002002404C
:1019300030BCBDE8C09F000001484068704700000F
:10194000440000200348416941F00041416100200A
:1019500070470000002002402DE9FF5F254C06463D
:10196000904620789A4601280BD0012020704CF236
:10197000503B5846FFF7DCFA07004FF0000904D04F
:101980002AE0022004B000F039B84846C4F80490B8
:10199000194D2968490504D5286820F4806028601D
:1019A0000220207726B1012E09D0022E07D00CE0AC
:1019B000424653460198FFF797FA012612E0414646
:1019C0000198FFF79FFA022E0AD05846FFF7B0FAA7
:1019D0004FEA0007FFF7E4F984F800903846D1E7B2
:1019E0004FF480265846FFF7A3FA07466869B043CC
:1019F0006861EFE7440000200020024030BCBDE8F1
:101A0000C09F0000064900204A69002A07DA054AFB
:101A10008A60054A8A604969002900DA0120704716
:101A20000020024023016745AB89EFCD022807D093
:101A3000B0F5005F03D103498878401C8870704777
:101A400003F012B910000020044910B50A680242E0
:101A500002D00860FFF7EAFF10BD00001404014047
:101A60002DE9FC4FDFF8B4A1002301250AF1040B96
:101A700003244FF00F0C0BF1040EC7E005FA03F638
:101A800032406FD04F68012F05D0022F03D0112FA5
:101A900001D0122F17D1D0F808905F0004FA07F890
:101AA00029EA08090097D1F80C8008FA07F848EAF3
:101AB0000908C0F808804768B7430E79C6F30016D6
:101AC0009E403E434660C6684FEA430804FA08F762
:101AD000BE4301978F6807FA08F73743C7604E681F
:101AE000022E01D0122E13D1DE0800EB86060096DE
:101AF000366A5F07FF0E0CFA07F926EA0906D1F8E5
:101B0000109009FA07F949EA0609009EC6F82090E4
:101B10000668019FBE430F7907F0030707FA08F72D
:101B2000374307604E68F6006FD53D4E376E47F07D
:101B300001073766366E23F0030706F001060096AC
:101B4000384E3E44B146B6689F074FEA17780CFA04
:101B500008F7BE43B0F1904F05D0334FB84204D1DF
:101B6000012721E051E000271EE0304FB84201D1AB
:101B7000022719E02E4FB84201D1032714E02D4F60
:101B8000B84201D104270FE02B4FB84201D10527FD
:101B90000AE02A4FB84201D1062705E0284FB84293
:101BA00001D1072700E0082707FA08F73743C9F8EB
:101BB0000870DAF800605746D1F8048096435FEA6F
:101BC000C83800D516433E60DBF800605F46D1F8A8
:101BD000048096435FEA883800D516433E60DEF8FD
:101BE00000607746D1F8048096435FEAC82800D5A4
:101BF00016433E60094F0C373E68D1F80480964387
:101C00005FEA882800D516433E605B1C0A6832FAFA
:101C100003F67FF433AF00F015B800000004014074
:101C20000010024000000140000400480008004885
:101C3000000C00480010004800140048001800483C
:101C4000001C00481CBCBDE8E08F0069084000D0C3
:101C5000012070470AB181617047816270470000BE
:101C600001488068704700003400002090F841204F
:101C7000202A24D190F84020012A20D0012280F887
:101C80004020242280F841200268136823F00103D9
:101C900013600268136823F48053136002681368AA
:101CA0000B43136001680A6842F001020A602021B8
:101CB00080F84110002180F840100846704702204B
:101CC000704790F84120202A22D190F84020012A24
:101CD0001ED0012280F84020242280F84120026892
:101CE000136823F0010313600268136823F4706320
:101CF00043EA0121116001680A6842F001020A60AA
:101D0000202180F84110002180F8401008467047DB
:101D1000022070477047704730B403689A691968A9
:101D2000D243D40509D4CC43240606D4446C44F0F1
:101D3000010444644FF48074DC6153050AD4CB433E
:101D40001B0607D4436C43F00803436404684FF454
:101D50008063E36192050AD4C943090607D4416C44
:101D600041F00201416402684FF40071D161416C9D
:101D700011F00B0F02D030BC02F022B830BC70471B
:101D8000026891691268436B002B00D018477047B6
:101D90007047000070B5040004D094F8410000259D
:101DA00010B106E0012070BD84F84050204600F0DC
:101DB0004FF8242084F841002068016821F00101D7
:101DC00001606068216820F07060086120688168A7
:101DD00021F400418160E0680128A06807D040F448
:101DE000044021688860E068022803D006E040F4DF
:101DF0000040F6E721684FF40060486020684168C1
:101E0000114A114341602068C16821F40041C1605A
:101E1000D4E904010843A16940EA01202168C860AF
:101E2000D4E907010843216808602068016841F08F
:101E3000010101606564202084F84100256384F875
:101E40004250002070BD000000800002704700007A
:101E500030B5ABB00446142125A8FEF71AFA942138
:101E60006846FEF716FA1F492068884238D180205C
:101E7000002500901695684600F0F8F808B1FEF7C6
:101E800036FF194CE06C40F00200E064E06C25A9DC
:101E900000F002002A904FF4406025901220CDE916
:101EA000260503202890042029901048FFF7D8FD2C
:101EB000A06D40F48000A065A06D002200F48000B9
:101EC0002A901146212000F08BF8212000F07AF8AA
:101ED00000221146222000F083F8222000F072F840
:101EE0002BB030BD005800400010024000040048F4
:101EF00070477047024881680278114481607047DA
:101F00003400002010B50024032000F089F80F20D1
:101F100000F008F808B1012401E000F03DF8204687
:101F200010BD000000B5014687B00022192000F066
:101F300057F8192000F046F81348016E41F400618B
:101F40000166006E05A900F400600690684600F086
:101F50005FFB00F08FFB0D490D4AB0FBF1F10D481E
:101F6000491E0260416040F2E7320021C0E90321CE
:101F7000816001F013FC10B1012007B000BD0548DD
:101F800001F05AFCF9E700000010024040420F0047
:101F9000002C014044180020094808B5016E41F0AA
:101FA00001010166016E01F001010091816D41F0B6
:101FB00080518165806D00F08050009008BD000068
:101FC00000100240002809DB00F01F0201219140AF
:101FD0004009800000F1E020C0F8001170470000C7
:101FE000F0B40E4B1B680C46C3F30223C3F1070584
:101FF000042D00D90425191D072901D2002300E072
:10200000DB1E012606FA05F1491E214099409E403B
:10201000761E16403143F0BC03F07EBC0CED00E0B0
:10202000064900F0070208684FF6FF03184040EA2F
:102030000220034A10430860704700000CED00E0E6
:102040000000FA0508480168C1F34121022906D0C1
:10205000D0F88000C00505D54FF4007070474FF4EC
:102060008060704700207047007000402DE9F84FF5
:102070000446002700883E46010504F12008FE4D75
:102080001ED5E06E40280AD003DC68B1202804D1B8
:102090000FE0602821D080281FD001270FE0E868DA
:1020A00040F48030E86018E00021201D02F094F92F
:1020B00003E00021404602F023FA07000DD03E461F
:1020C0002088C0042BD5206FB0F5007F16D00DDC22
:1020D000C8B1B0F5807F0FD11AE0D5F89C00E16E51
:1020E00020F0E0000843C5F89C00E9E7B0F5407F28
:1020F00013D0B0F5806F10D001270FE0E86840F4EE
:102100008030E86009E00021201D02F065F903E05D
:102110000021404602F0F4F90746F7B13E46206838
:1021200080033AD5A86D4FF00008C00009D4A86D0F
:1021300040F08050A865A86D4FF0010800F0805075
:102140000090DFF838A3DAF8001041F48071CAF883
:102150000010FFF785FD814610E0D5F89C00216F47
:1021600020F4E0600843C5F89C00D8E7FFF778FD4D
:10217000A0EB0900022801D9032705E0DAF80000E6
:10218000C005F3D5002F7CD04FEA0706B8F1000F49
:1021900003D0A86D20F08050A8652078C00707D034
:1021A000D5F88800E16B20F003000843C5F88800EB
:1021B0002078800707D5D5F88800216C20F00C0026
:1021C0000843C5F888002078400707D5D5F888006F
:1021D000616C20F030000843C5F8880020780007C3
:1021E00007D5D5F88800A16C20F0C0000843C5F8D9
:1021F00088002078C00607D5D5F88800E16C20F467
:1022000040700843C5F888002078800607D5D5F8C7
:102210008800216D20F440600843C5F888002088BC
:10222000800507D5D5F88800616E20F4402008436A
:10223000C5F888002088400507D5D5F88800A16E2C
:1022400020F440100843C5F888002078400607D5E0
:10225000D5F88800616D20F440500843C5F8880027
:102260002078000607D5D5F88800A16D20F44040FD
:102270000843C5F888002088C00509D5D5F888002E
:1022800000E027E0E16D20F440300843C5F8880005
:102290002068C00207D5D5F89C00216E20F003000D
:1022A0000843C5F89C0020884FF0006780044FF079
:1022B000806850D5D5F88800616F20F040600843F1
:1022C000C5F88800606FB8423DD1E86840F48010DE
:1022D000E86040E0D5F8900010F4407015D0D4F8D4
:1022E0009010814211D0D5F89000D5F8901020F4CC
:1022F000407041F48031C5F89010D5F8901021F469
:102300008031C5F89010C5F89000C00711D0FFF7D4
:10231000A7FC074641F2883907E000BFFFF7A0FCA1
:10232000C11B494501D9032630E7D5F89000800745
:10233000F4D5D5F89000D4F8901020F440700843FC
:10234000C5F8900022E7404505D10121201D02F08B
:1023500043F800B10646206800032DD5A06F4FF466
:1023600080418842D5F89C0004D140F48040C5F8F3
:102370009C000BE020F48040C5F89C00D5F8880054
:10238000A26F20F040601043C5F88800A06FB842EB
:1023900003D1E86840F4801004E0884204D1E86882
:1023A00040F48030E86007E0404505D10121201D60
:1023B00002F012F800B106462068400317D5D5F8A0
:1023C0008800E16F20F040600843C5F88800E06FA6
:1023D000B84204D1E86840F48010E86007E0404566
:1023E00005D10121201D01F0F7FF00B1064620882C
:1023F000400413D5D5F88800D4F8801020F0405060
:102400000843C5F88800D4F88000B0F1805F05D19A
:102410000221201D01F0E0FF00B106462068C00344
:1024200008D5D5F89C00D4F8841020F004000843A7
:10243000C5F89C002068800208D5D5F89C00D4F827
:10244000881020F018000843C5F89C002068C001DF
:1024500010D5D5F89C0054F88C1F20F44010084388
:10246000C5F89C002068B0F5001F03D1E86840F46F
:102470008010E860304603E0001002400070004029
:1024800000F000B818BCBDE8E08F00002DE9F0476F
:102490000E4605004FF000077ED0DFF85C81D8F8CB
:1024A000000000F00F00B0420CD2D8F8001021F06C
:1024B0000F013143C8F80010D8F8000000F00F00F9
:1024C000B04271D128784D4CC0074BD06868DFF816
:1024D000309103281ED002282ED0002820682ED04C
:1024E0004005002860DA00F0D7F8484506D9A06812
:1024F00020F0F00040F08000A0608027A0686968AC
:1025000020F003000843A060FFF7AAFB814641F2D8
:10251000883A20E02068800146D502F085F84845D9
:10252000ECD9A06810F0F00FE1D028788007E5D54D
:10253000A8680028DBD0E1E720688003D1E78007A6
:10254000CFE700BFFFF78CFBA0EB0901514502D993
:102550000320BDE8F087A068696800F00C00B0EBCC
:10256000810FEFD12878800705D5A068A96820F0F1
:10257000F000084304E0802F03D1A06820F0F000B1
:10258000A060D8F80010404601F00F01B1420DD90B
:10259000016821F00F0100E006E0314301600068AE
:1025A00000F00F00B04201D00120D2E728784007A8
:1025B00005D5A068E96820F4E0600843A0602878A9
:1025C000000706D5A068296920F4605040EAC100E0
:1025D000A06000F061F8A1680A4AC1F30311515CE0
:1025E00001F01F01C8400849086008480068BDE8BC
:1025F000F047FFF797BC00000020024000100240A7
:1026000000B4C404A464000828000020380000209E
:102610000F2202600C4A936803F00303436093683F
:1026200003F0F0038360936803F4E063C36092688F
:102630004FF4E06303EAD20202610448006800F04C
:102640000F000860704700000010024000200240A8
:102650000548064900688968054AC1F30221515CB2
:1026600001F01F01C8407047280000200010024000
:10267000E46400080548064900688968054AC1F312
:10268000C221515C01F01F01C840704728000020A2
:1026900000100240E464000870B525490023184684
:1026A0008A68CC6812F00C0204F00306214C4FEA51
:1026B000640509D00C2A05D0042A32D0082A00D19A
:1026C000284670BD012E10D10B681B0704D4D1F829
:1026D0009430C3F3032302E00B68C3F30313164ED5
:1026E00056F82330DAB10C2AEBD1C86800F00300A9
:1026F000022818D0032818D01846CA68CB68C2F33D
:102700000312C3F306234343521CB3FBF2F2C8681F
:10271000C0F34160401C4000B2FBF0F070BD1846B1
:1027200070BD204670BD2046E7E72846E5E700007B
:10273000001002400024F400B46400082DE9F843BE
:1027400004006FD0FA4DA86800F00C06E86800F0AD
:1027500003072078C00664D576B10C2E01D1012F75
:102760000AD0A069002828687AD040F001002860CB
:10277000FFF776FA80465DE02868800702D5A069F9
:102780000028DED0216A2868000703D5286800F0F9
:10279000F00004E0D5F89400F02202EA1010814223
:1027A00016D9084601F07AFF00283BD1286840F08E
:1027B000080028602868216A20F0F000084328609B
:1027C0006868E16920F47F4040EA0120686016E013
:1027D000286840F0080028602868216A20F0F0008E
:1027E000084328606868E16920F47F4040EA0120DE
:1027F000686026B9206A01F051FF0028D5D1FFF7A3
:102800004BFFA968CB4AC1F30311515C01F01F01D2
:10281000C840C9490860C9480068FFF783FB002821
:102820007ED12EE0CAE000BFFFF71AFAA0EB080045
:10283000022876D828688007F6D5286840F0080076
:1028400028602868216A20F0F00008432860686842
:10285000E16920F47F4040EA0120686011E0FFE771
:1028600020F001002860FFF7FBF9804606E000BF7A
:10287000FFF7F6F9A0EB08000228DAD828688007ED
:10288000F6D42078C00740D0082E18D00C2E01D1E5
:10289000032F14D06068B0F5803F17D0B0F5A02F9B
:1028A000286817D020F480302860286820F4802021
:1028B00028606068E0B1FFF7D3F9804614E028682B
:1028C000800322D56068002878D01EE0286840F494
:1028D0008030EDE740F480202860F7E7FFF7C0F98B
:1028E000A0EB08006428A4D828688003F6D50CE083
:1028F000FFF7B6F9804605E0FFF7B2F9A0EB080054
:10290000642896D828688003F6D4207880073BD5C1
:10291000042E11D00C2E01D1022F0DD0E06801E061
:10292000BAE1FFE0002828681ED040F480702860DB
:10293000FFF796F907460CE0286840050CD5E068DB
:102940000028C1D008E000BFFFF78AF9C01B0228A9
:1029500093D828684005F7D56868217C20F0FE40B0
:1029600040EA016068600FE020F480702860FFF7A3
:1029700077F9074605E000BFFFF772F9C01B022890
:10298000B1D828684005F7D42078000729D56069B8
:102990000028D5F8940012D040F00100C5F894004A
:1029A000FFF75EF9074604E0FFF75AF9C01B02285B
:1029B00099D8D5F894008007F6D512E02BE120F0E5
:1029C0000100C5F89400FFF74BF9074605E000BF8A
:1029D000FFF746F9C01B022885D8D5F89400800778
:1029E000F6D42078400766D5A86D0027C00008D42B
:1029F000A86D40F08050A865A86D012700F08050B8
:102A000000904F480168C90512D40168814641F41D
:102A100080710160FFF724F9804605E0FFF720F997
:102A2000A0EB080002287DD8D9F80000C005F5D534
:102A3000A068012816D00528D5F8900017D020F0FE
:102A40000100C5F89000D5F8900020F0040000BF08
:102A5000C5F89000A06841F28839C0B1FFF700F9CD
:102A600080460FE0D5F8900040F00100F0E740F01C
:102A70000400C5F89000F5E7FFF7F2F8A0EB0801B5
:102A800049454FD8D5F890008007F5D50EE0FFF7FF
:102A9000E7F8804606E000BFFFF7E2F8A0EB080188
:102AA00049453FD8D5F890008007F5D41FB1A86DEF
:102AB00020F08050A8652078800628D5606A00281C
:102AC000D5F8980012D040F00100C5F89800FFF743
:102AD000C7F8074605E000BFFFF7C2F8C01B022891
:102AE00020D8D5F898008007F6D510E020F0010036
:102AF000C5F89800FFF7B4F8074604E0FFF7B0F810
:102B0000C01B02280ED8D5F898008007F6D4A06A1A
:102B1000F0B3022816D00C2E7DD0286820F08070EB
:102B2000286000E0B7E0286810F0205F74D0A4E0CF
:102B300000100240A4640008280000203800002093
:102B400000700040E868E26A00F00301914228D179
:102B5000216B00F0F00209011039914221D1626B22
:102B600000F4FE41B1EB022F1BD194F8382000F0A5
:102B70007841B1EBC26F14D1A18F00F4C0024908B3
:102B80004905A1F5001191420BD194F8401000E0E5
:102B90006EE04908490600F0C060A1F10071814271
:102BA0004FD00C2E7FD0286840017CD42868C0000C
:102BB00079D4286820F080702860FFF751F8064625
:102BC00005E000BFFFF74CF8801B022863D8286897
:102BD0008001F7D4F4E90B016FF00F0202EB011151
:102BE0000843218A5204490802EB4151A26841EA94
:102BF00002210843217D4FF07E42490802EB4161EA
:102C00000843217B40EAC160E968284A1140084333
:102C1000E860286801E046E02BE040F08070286022
:102C2000E86840F08070E860FFF71AF8044604E0B6
:102C3000FFF716F8001B02282DD828688001F7D569
:102C40002FE0286880012CD4286840F0807028602C
:102C5000E86840F08070E860FFF702F8044604E09E
:102C6000FEF7FEFF001B022815D828688001F7D563
:102C700017E0E86820F00300E860E8680C490840C5
:102C8000E860FEF7EDFF044608E000BFFEF7E8FF4E
:102C9000001B022802D90320BDE8F88328688001C0
:102CA000F4D40020F8E70120F6E700000C809D0135
:102CB000FFFFEEFE10B5040011D0022084F85D0085
:102CC0002068016821F040010160204600F016F9FB
:102CD0000020206684F85D0084F85C0010BD0120AF
:102CE00010BD704738B5016804464A688868C0431B
:102CF000430606D5C30704D1D3435B0601D4E16C78
:102D000005E0830708D4D3431B0605D4216D01B029
:102D10002046BDE830400847830603D5430601D569
:102D2000C30551D4D3439B064ED443060AD494F82A
:102D30005D30032B49D0236E43F004032366CB6838
:102D40008B680093830609D4236E43F00103236646
:102D50008B6800930B6823F040030B60C00506D41A
:102D6000206E40F008002066206880680090206E89
:102D7000002829D02068416821F0E001416001204D
:102D800084F85D00900701D4D00722D02068416804
:102D900021F003014160114DA06D40B18563A06D2C
:102DA000FEF704FC18B1206E40F040002066606D14
:102DB000002809D08563606DFEF7F8FB002803D07A
:102DC000206E40F04000206638BDC86888680090DA
:102DD00038BD2046FFF785FF38BD0000E7490008F1
:102DE0002DE9F041040009D0606A002548B1256151
:102DF000C4F8145094F85D0048B10DE00120BDE81E
:102E0000F0816068B0F5827FF4D0E561F2E784F884
:102E10005C50204600F073F8022284F85D202068A0
:102E2000016821F040010160E0684FF4E0639842DE
:102E300001D9002101E04FF48051B0F5706F02D04C
:102E4000984200D0A562A088268900F4827006F41A
:102E500004463043267C06F002063043267D06F009
:102E600001063043268B06F400763043267F06F0B9
:102E70003806304394F8206006F080063043268DF3
:102E800006F40056304326683060A66A4FF40057B7
:102E90000120BE420DD1266B16B1022E04D008E0EF
:102EA000E6689E4228D922632268136843F40063CF
:102EB0001360A269042303EA124294F8243001F457
:102EC000805103F010031A4394F8343003F00803E0
:102ED0001A43A38903F470631A430A4321684A60C2
:102EE000A16AB94203D1A18D226889B21161256618
:102EF00084F85D00002082E72063DAE770477047BE
:102F00002DE9F84F4FF0000A0446CDF800A04068C4
:102F100099461746884655464FF0040BB0F5827F18
:102F200001D1A06878B194F85C00012816D0012086
:102F300084F85C00FEF794FE064694F85D000128D4
:102F40000ED00225FDE084F85DB013460A46204607
:102F5000CDF8009000F088F900F0FAB80220FBE705
:102F6000B8F1000F71D0002FFCD084F85DB0C4F828
:102F700060A0C4F84080A4F84470A4F84670C4F877
:102F800038A0A4F83CA0A4F83EA0C4F84CA0C4F813
:102F900050A0A06A4FF4005840450ED12068016847
:102FA00021F4005101602068016841F40051016082
:102FB000B4F84600401EA4F84600E0684FF4E0670D
:102FC000B8422068416802D921F4805101E041F4FF
:102FD00080514160A068B0F5004F09D120680168B8
:102FE00021F0400101602068016821F48041016006
:102FF00020680168490603D4016841F0400101607E
:10300000E068B8421CD93DE020688168C9070BD050
:10301000007B216C0870206C401C2064B4F84600D2
:10302000401EA4F846000BE0FEF71AFE811B49453E
:1030300003D3B9F1FF3F03D038E0B9F1000F35D029
:10304000B4F846000028DFD120E079E020688168EC
:10305000C9070BD0C068216C0880206C801C2064DC
:10306000B4F84600401EA4F846000BE0FEF7F8FD59
:10307000811B494503D3B9F1FF3F03D016E0B9F1F5
:10308000000F13D0B4F846000028DFD1A06A4045F5
:1030900041D12068016841F48051016001224B4612
:1030A00011462046009602F065F808B1032548E075
:1030B000E068B842206803D9C068216C088002E04B
:1030C000007B216C087001224B4611462046009679
:1030D00002F050F8B8B9E068B0F5706F08D0216818
:1030E000097B0091B84216D1206B022803D012E070
:1030F0002068C0680EE001224B461146204600962B
:1031000002F038F820B1206E40F002002066CDE7D2
:103110002068007B009032464946204601F06CFC56
:1031200008B12020206620688168C90606D5216E76
:1031300041F0020121664FF6EF718160206E00B10F
:103140000125012084F85D0084F85CA0284603E78F
:1031500018BCBDE8E08F0000F0B41346002482687C
:1031600004261AB94268B2F5827F0DD090F85C202F
:10317000012A0FD0012580F85C5090F85D70002284
:10318000012F0AD0022449E080F85D60F0BC0A46B5
:1031900000F01ABA0220F0BC7047C1B1BBB180F890
:1031A0005D6002660164A0F84430A0F84630826396
:1031B0008287C2870265C1684FF4E0639942016863
:1031C0004E6806D926F480564E60204905E0012459
:1031D00024E046F480564E601D49C1648168B1F513
:1031E000004F09D101680E6826F040060E600168A4
:1031F0000E6826F480460E60816AB1F5005F11D03A
:10320000826401684B6843F060034B6001680B689F
:103210005B0603D40B6843F040030B6080F85C202E
:103220002046B8E78564C168994203D8016B02293A
:1032300000D1816401680B6823F400530B600168BE
:103240000B6843F400530B60DBE70000B54A00084D
:103250001D4B000803480168002901D000210160CE
:1032600070470000000000202DE9FF4F83B04FF0B1
:10327000000A0446CDF800A090F85C00109F1D469F
:1032800093464FF001095646012813D0012084F8D7
:103290005C00FEF7E5FC94F85D108046D4E900027E
:1032A000036801934368009301290DD0B2F5827F32
:1032B00008D103E0022007B000F082B9A2680AB981
:1032C000042901D0022674E10499A1B3BBF1000FD7
:1032D00032D085B394F85D10042902D0052184F81A
:1032E0005D10C4F860A0C4F840B0A4F84650A4F83B
:1032F0004450049AA263E587A587C4F84CA0C4F89B
:1033000050A0A16A4FF4005B594508D1016821F42F
:10331000005101602068016841F400510160E068DB
:103320004FF4E061884201D8012D07D92068426836
:1033300022F4805206E0FFE701263AE12068426865
:1033400042F48052426020680268520603D4026848
:1033500042F040020260E068884260685AD908B1D1
:10336000012D4FD1A06B21680088C860A06B801C24
:10337000A063E08F401EE08744E0206881688907F1
:1033800024D5E18F11B3B9F1010F1FD1A16B0988C9
:10339000C160A06B801CA063E08F401EE087E08FBF
:1033A0004FF0000990B9A06A58450FD10198400725
:1033B00007D40098000704D52068016841F4007123
:1033C00001602068016841F48051016020688168D3
:1033D000C9070FD0B4F8461061B1C068216C0880ED
:1033E000206C801C2064B4F84600401EA4F84600FF
:1033F0004FF00109FEF734FCA0EB0800B84201D3FE
:10340000781C75D1E08F0028B7D1B4F846000028A9
:10341000B3D18CE008B1012D15D1E08F0128A06B4C
:1034200008D921680088C860A06B801CA063E08F69
:10343000801E07E0216800780873A06B401CA06321
:10344000E08F401EE0876BE02068816889072FD5F8
:10345000E18F69B3B9F1010F2AD1E18F0129A16B85
:1034600007D90988C160A06B801CA063E08F801E13
:1034700006E009780173A06B401CA063E08F401E3A
:10348000E087E08F4FF0000990B9A06A58450FD14E
:103490000198400707D40098000704D52068016808
:1034A00041F4007101602068016841F480510160BD
:1034B00020688168C90729D0B4F8461031B3B4F840
:1034C0004610012915D9C068216C0880206C801C29
:1034D0002064B4F84600801EA4F84600B4F8460004
:1034E000012811D82068416841F4805141600BE007
:1034F0002AE0007B216C0870206C401C2064B4F82A
:103500004600401EA4F846004FF00109FEF7A8FB54
:10351000A0EB0800B84202D3781C01D014E09FB1A0
:10352000E08F002890D1B4F8460000288CD1A06A22
:10353000584529D101223B4611462046CDF800804E
:1035400001F018FEC0B901E0032632E0E068B0F5F2
:10355000706F206805D0007B0090206B022802D09D
:1035600012E0C0680FE001223B4611462046CDF82C
:10357000008001F0FFFD20B1206E40F002002066C7
:10358000E2E72068007B009020688168C90607D5C3
:10359000216E41F0020121664FF6EF718160012634
:1035A00042463946204601F061FA10B1012620203A
:1035B0002066012084F85D0084F85CA030467AE63D
:1035C00030BCBDE8C08F0000F0B590F85C5000241E
:1035D000012D0DD0012780F85C7090F85D6000250A
:1035E000D0F804C0012E0ED0BCF5827F09D101E0D5
:1035F0000220F0BDD0F808C0BCF1000F01D1042EAC
:1036000001D0022454E0D1B1CAB1C3B190F85D60D9
:10361000042E02D0052680F85D60056681638387ED
:10362000C3870264A0F84430A0F84630C1684FF464
:10363000E062914205D9204EC664204E04E0012488
:1036400036E01F4EC6641F4E0665866AB6F5005FFB
:103650000AD08564C168914201D8022B16D3016853
:103660004A6822F4805215E08764914203D8016BC6
:10367000022900D1816401680E6826F400560E60AC
:1036800001680E6846F400560E60E3E701684A6878
:1036900042F480524A6001684A6842F0E0024A609F
:1036A00001680A68520603D40A6842F040020A60C0
:1036B00080F85C502046F0BD1D47000821480008F6
:1036C0007D4700086D48000830B590F85C30002454
:1036D000012B0BD0012380F85C30002341B13AB1BB
:1036E00090F85D50012D05D0022441E0022030BD4C
:1036F00001243DE0032580F85D50036681638287E5
:10370000C2870364A0F84430A0F84630C364C1689F
:10371000B1F5E06F01D9184900E0184901658168E9
:10372000B1F5004F09D101680A6822F040020A6031
:1037300001680A6842F480420A60816AB1F5005F5C
:1037400009D101680A6822F400520A6001680A6817
:1037500042F400520A6001684A6842F0A0024A60DE
:1037600001680A68520603D40A6842F040020A60FF
:1037700080F85C30204630BD874B0008B94B00080C
:1037800003484168002901D00021416070470000D2
:1037900000000020704770477047704710B5040064
:1037A00003D094F83D0010B107E0012010BD0020C7
:1037B00084F83C00204600F023F8022084F83D0005
:1037C000211D206801F064FD012084F8480084F880
:1037D0003E0084F83F0084F8400084F8410084F8FB
:1037E000420084F8430084F8440084F8450084F8DB
:1037F000460084F8470084F83D00002010BD00001A
:1038000008B50068B0F1804F12D10A48816D41F0CF
:1038100001018165806D002200F0010000901146D9
:103820001C20FEF7DDFBBDE808401C20FEF7CABBEC
:1038300008BD00000010024090F83D10012901D0A1
:1038400001207047022180F83D100168CA6842F0EB
:103850000102CA6000681149884211D0B0F1804F5E
:103860000ED00F4988420BD00E49884208D00E492D
:10387000884205D00D49884202D00D49884207D1BF
:1038800081680C4A1140062906D0B1F5803F03D06B
:10389000016841F00101016000207047002C0140E7
:1038A0000004004000080040000C004000340140CB
:1038B0000040014007000100704770B504460068F1
:1038C00001694FF00005C943890715D4C168C94390
:1038D000890711D4E91E01610120207720688069E1
:1038E0008007204602D0FFF7E7FF04E000F0A7F8CA
:1038F000204600F0A5F8257720680169C9434907EB
:1039000017D4C168C943490713D46FF0040101619A
:10391000022020772068806910F4407F204602D082
:10392000FFF7CAFF04E000F08AF8204600F088F8AC
:10393000257720680169C943090716D4C168C943BE
:10394000090712D46FF00801016104202077206874
:10395000C0698007204602D0FFF7AEFF04E000F008
:103960006EF8204600F06CF8257720680169C9439D
:10397000C90617D4C168C943C90613D46FF0100132
:103980000161082020772068C06910F4407F20463C
:1039900002D0FFF791FF04E000F051F8204600F05C
:1039A0004FF8257720680169C943C90708D1C16864
:1039B000C943C90704D1891E0161204600F042F8BD
:1039C00020680169C943090609D4C168C9430906C9
:1039D00005D46FF0800101612046FFF7DDFE20680D
:1039E0000169C943C90509D4C168C943090605D499
:1039F0006FF4807101612046FFF7CDFE20680169F8
:103A0000C943490609D4C168C943490605D46FF0C2
:103A100040010161204600F01FF820680169C94398
:103A200089060BD4C168C943890607D46FF0200109
:103A300001612046BDE87040FFF7AFBE70BD704722
:103A40007047000000680349884201D1FEF752BA6E
:103A500070470000002C0140704710B5040003D0EF
:103A6000D4F8840010B107E0012010BD002084F8D4
:103A70008000204600F026F82420C4F88400206846
:103A8000016821F001010160204601F0F5FC0128E8
:103A9000EBD0A06A10B1204601F05AFC20684168C2
:103AA00021F4904141602068816821F02A01816001
:103AB0002068016841F0010101602046BDE8104026
:103AC00001F0AABC704700002DE9F84F0446D0F879
:103AD00088009A4616460D46202870D10DB306B3CD
:103AE00094F8800001286AD0012084F880004FF00B
:103AF0000008C4F88C802221C4F88810C4F86C80B7
:103B00002034FEF7ADF8A6878146E68754F8180CF6
:103B10004FF48053FF21203C984208D122691AB10A
:103B20001BE0012000F04DB840F2FF1115E07F22AC
:103B300088B1B0F1805F13D0A4F86080B4F86070F1
:103B4000984201D1206990B12E46002584F88080EA
:103B500007F0FF0825E0266936B9A4F86010EDE704
:103B6000216909B13F21F8E7A4F86020E6E70026C3
:103B7000ECE74B46002220212046CDF800A001F0C2
:103B8000C9FD08B10320CDE72068808C96B100EA1A
:103B9000080006F8010B00BFB4F85E00401EA4F850
:103BA0005E00B4F85E000028E3D12020C4F888004D
:103BB0000020B7E7384025F8020BEDE7FFE70220C9
:103BC000B0E718BCBDE8E08F2DE9F8430446D0F813
:103BD00084001F4616460D46202851D1DDB1D6B1CE
:103BE00094F8800001284BD0012084F880004FF029
:103BF0000008C4F88C802120C4F884001834FEF733
:103C00002FF8A6878146E68754F8100C183CB0F5CB
:103C1000805F03D004E00120BDE8F883206920B173
:103C20002E46002584F8808010E00026FAE78021E7
:103C3000204601F06FFDB8B9C6B116F8010B216836
:103C40000885B4F85600401EA4F85600B4F8560093
:103C50004B464FF0000200970028E8D14FF040019A
:103C6000204601F057FD30B10320D5E735F8020BAF
:103C7000C0F30800E3E72020C4F884000020CBE76D
:103C80000220C9E7FEE700000148FEF745B8000042
:103C9000C01600200148FEF773B80000C0160020CF
:103CA000806A0021826B02B19163C26B02B19163A1
:103CB00000F094BA10B50022CC074FF0280306D0CC
:103CC00090F84140422233EA040400D0F2228C07EB
:103CD00007D590F8414042F04402A34301D042F09E
:103CE000B0020B0401D542F0B802102904D02029FB
:103CF00005D0402906D007E042F0900204E042F0EF
:103D0000200201E042F04002006801689143016036
:103D100010BD01688A69D243920701D400228A62E9
:103D200000688169C943C90703D0816941F0010175
:103D3000816170472DE9F041044690F84100282147
:103D4000814320684FF000054FF0080304D0C361A1
:103D500084F84050BDE8F0818169C1F30047816972
:103D6000FE2202EA11468168C1F30902C168D4F853
:103D70000CE001F0FE014FF4004CBEF1020F17D130
:103D80004FF0060E06F006060EEAD21E76450ED15C
:103D9000A16C491CA164A16C0229DBD1A564C3619B
:103DA00084F8405039462046FDF7B5FFD2E70E466D
:103DB00061462046FFF77EFF84F840503246F1E727
:103DC00070B5044690F84100002584F84250364A08
:103DD000E2626585626C0A43626428281FD0292844
:103DE0001DD02A281BD048F203012046FFF762FFAE
:103DF00094F84100602802D0202084F841006563D7
:103E0000206B2A4EA16B19B1112812D0212810D095
:103E1000E16BE9B3122824D0222822D03EE003210E
:103E20002046FFF747FF282084F8410020486063C0
:103E3000E6E720680168490403D5016821F4804160
:103E40000160A06BFDF7EAFB012827D0A06B866319
:103E500084F84050A06BFDF7A9FB002823D0A06B8D
:103E600018E020680168090403D5016821F40041C5
:103E70000160E06BFDF7D2FB01280FD0E06B866399
:103E800084F84050E06BFDF791FB00280BD000E078
:103E900004E0E06B816BBDE8704008472046BDE858
:103EA000704000F09BB970BD0000FFFFA13C00080E
:103EB000BD40000870B504461648E0620025256341
:103EC000202084F8410084F84250C84365634007CD
:103ED00011D42068406A616A0870606A401C6062A0
:103EE000208D40B1401E2085608D401E6085606C35
:103EF00040F00400606448F203012046FFF7DAFE58
:103F000021681020C86184F840502046FDF79EFFCC
:103F100070BD00000000FFFF2DE9F041026804467B
:103F2000156890F841000E462027D761212806D059
:103F3000292804D0222809D02A2807D00DE048F2E9
:103F400001012046FFF7B6FE212005E048F20201FC
:103F50002046FFF7AFFE222020632068416841F42D
:103F60000041416020684168354A11404160204667
:103F7000FFF7CFFEE843410406D42068016821F42E
:103F800080410160A06B07E0000409D4206801684B
:103F900021F400410160E06B10B100684068608569
:103FA000F04340070FD4206826F00406406A616A97
:103FB0000870606A401C6062208D20B1401E208520
:103FC000608D401E6085608D18B1606C40F004000B
:103FD0006064002584F842506563606C68B1616C70
:103FE0002046FFF7EDFE94F84100282815D1314610
:103FF0002046BDE8F041FFF75DBFE06A114EB042D8
:104000000DD0204600F020F8E66284F84170256368
:1040100084F840502046FDF719FFBDE8F08194F880
:10402000410084F841702228256384F840502046DE
:1040300002D0FDF75EFFF0E7FDF75AFFEDE7000065
:1040400000E800FE0000FFFF70B50446006801684C
:10405000002584F84250C9434A0403D4016821F47E
:10406000804104E0090403D4016821F400410160A7
:1040700094F841102820292911D094F841102A29B8
:104080000CD184F841002220206302212046FFF752
:1040900011FE84F840502046FDF72AFF70BD84F8D9
:1040A00041002120206301212046FFF703FE84F810
:1040B00040502046FDF71DFF70BD00002DE9F04186
:1040C000C56A044690F840008846012826D00120A1
:1040D00084F840006FEA0807B8066FEA020605D4C4
:1040E000B00603D441462046FFF716FF3A49F806CA
:1040F0004FF0807231D4F0062FD4638D102083B13D
:104100002168C861606C40F0040060640DB19542A4
:104110005ED1616C2046FFF753FE59E00220BDE8F6
:10412000F08194F84120282A02D1B5F1007F04D013
:1041300094F84120292A05D00CE041462046FFF79B
:10414000B9FE45E08D4205D02168C8612046FFF7E1
:10415000E0FD3AE02168C8613AE0780715D47007BD
:1041600013D4608D60B12068406A626A1070606A22
:10417000401C6062208D401E2085608D401E608541
:10418000608D28BB8D4220D122E0380706D430074D
:1041900004D441462046FFF7CDFD19E0B80717D4F7
:1041A000B00715D4608D68B1606A216800788862B4
:1041B000606A401C6062608D401E6085208D401EDC
:1041C000208505E0954200D015B92046FFF73CFF59
:1041D000002084F84000A2E70000FFFF10B590F82F
:1041E00041200021602A05D0016380F84010FDF7CE
:1041F000CFFD10BD202280F84120016380F84010DF
:10420000FDF788FD10BD000070B51C481A49002458
:10421000C0E900140125057245724FF0C041C1612B
:104220000F2101621E214162FDF716F808B172B636
:10423000FEE7124810495430C0390160057114215D
:10424000C0E902410461446104218461C0E907417D
:10425000C0E90945C4620463FCF712FF08B172B6F5
:10426000FEE7012206490548FCF7D0FF002801D0EF
:1042700072B6FEE770BD0000006101400C1700201F
:1042800004000200124810B5104901601149416054
:1042900000210122C0E90212016141618161C16115
:1042A0000162FDF777FD08B172B6FEE7002108480C
:1042B000FDF7DCFC08B172B6FEE700210448FDF70B
:1042C00000FD002801D072B6FEE710BD0058004086
:1042D000C0160020B1757030FEE77047F8B50025B4
:1042E0000E46044601270EE08DF8007020782E2837
:1042F00006D06946204600F04DF870556D1CEDB2B1
:104300009DF80000044420780028EDD1F8BDF8B5F0
:1043100000273BE001228DF8002002783A2A32D0B3
:1043200000240346EC46264616E02401092D01D858
:10433000EAB20DE0A2F16105052D01D8573A04E07B
:10434000A2F14105052D02D8373AD2B200E0002291
:10435000761C1444F6B25B1C1A78A2F13005092DC4
:10436000E3D9A2F1610EBEF1050FDED9A2F1410E33
:10437000BEF1050FD9D9BCF1000F01D08CF8006057
:10438000CC557F1CFFB29DF8002010440278002A13
:10439000C0D1F8BDF0B500240578224623462D2D66
:1043A00002D101242246401C6FF02F060578A5F1AA
:1043B0003007092F08D803EB8303521C06EB430395
:1043C0002B44D2B2401CF1E701B10A700CB1584243
:1043D000F0BD1846F0BD70472DE9F041434C05464D
:1043E0008846E06800268107286806D0E16801F069
:1043F000030181420FD170B11AE0012804D00228D4
:1044000005D0032807D108E02168890701E0216869
:104410004905002907DB012664E02168890302D4ED
:1044200021684903F5E7E16821F003010143E160F8
:10443000206820F080602060FDF712FC074604E051
:10444000FDF70EFCC01B022843D820680001F7D4FA
:104450006FF00F00B8F1000F1BD0B8F1010F24D09E
:10446000297D4908420502EB4161AA6841EA02211F
:104470006A6800EB0210014320691D4A10400143A5
:104480002161206840F080602060FDF7E9FB07466D
:1044900021E0A9682A7B090241EAC2616A6800EB4F
:1044A000021001432069134AE8E7298A124A4908A1
:1044B00002EB4151AA6841EA02216A6800EB02104E
:1044C000014320690D4AD9E7FDF7CAFBC01B02284A
:1044D00001D9032606E020680001F5D52069A96905
:1044E000084320613046BDE8F08100000010024022
:1044F0000F80FFF90F80FF070000E0FF0F809FFF94
:104500002DE9F041434C05468846E06800268107C6
:10451000286806D0E16801F0030181420FD170B133
:104520001AE0012804D0022805D0032807D108E0AA
:104530002168890701E021684905002907DB012678
:1045400064E02168890302D421684903F5E7E16842
:1045500021F003010143E160206820F080502060D9
:10456000FDF77EFB074604E0FDF77AFBC01B02283F
:1045700043D820688000F7D46FF00F00B8F1000F27
:104580001BD0B8F1010F24D0297D4908420502EB68
:104590004161AA6841EA02216A6800EB0210014306
:1045A00060691D4A104001436161206840F08050FD
:1045B0002060FDF755FB074621E0A9682A7B090228
:1045C00041EAC2616A6800EB021001436069134A64
:1045D000E8E7298A124A490802EB4151AA6841EAF0
:1045E00002216A6800EB0210014360690D4AD9E7B5
:1045F000FDF736FBC01B022801D9032606E0206820
:104600008000F5D56069A969084360613046BDE85E
:10461000F0810000001002400F80FFF90F80FF07BB
:104620000000E0FF0F809FFF18480021C26802F0E1
:104630000302012A0DD10168090704D4D0F89410AF
:10464000C1F3032102E00168C1F30311104A52F8DB
:104650002110C26802F00302022A02D0032A03D109
:1046600001E00C4900E00C49C268C368C2F30312C0
:10467000C3F306234B43521CB3FBF2F1C068C0F3F3
:104680004160401C4000B1FBF0F070470010024058
:10469000B46400080024F40000127A00F8B51A4D42
:1046A00006460024A86DC00002D5FDF7CBFC0DE046
:1046B000A86D40F08050A865A86D00F08050009073
:1046C000FDF7C0FCA96D21F08051A965B0F5007F10
:1046D00003D0802E06D3022407E0802E05D9A02E19
:1046E000F9D801E0702E00D101240848016821F0BA
:1046F0000F0121430160006800F00F00A04201D0CB
:104700000120F8BD0020F8BD00100240002002404A
:104710000148FEF7E7BA0000840000200168C9687C
:10472000026C1180016C891C0164B0F84610491EAE
:10473000A0F84610B0F8461000290FD1816AB1F5F3
:10474000005F09D001684A6822F040024A60C18FC8
:10475000002903D100F0BBB80149C16470470000D3
:1047600065470008016882B0CA6800924A6822F072
:1047700040024A6002B000F0AAB80000B0F846302B
:10478000026C0168012B13D9C9681180016C891C66
:104790000164B0F84610891EA0F84610B0F8461023
:1047A00001290FD101684A6842F480524A6009E049
:1047B000097B1170016C491C0164B0F84610491E58
:1047C000A0F84610B0F84610002912D1816AB1F560
:1047D000005F01684A6807D022F060024A60C18F1A
:1047E000002906D100F073B842F480524A600149B2
:1047F000C1647047F9470008016882B00A7B0092E3
:10480000826C521E826409D14A6822F060024A60BA
:10481000C18F002902D102B000F059B802B0704730
:10482000816B02680988D160816B891C8163C18FAB
:10483000491EC187C18F002917D1816AB1F5005F78
:10484000016809D04A6822F080024A60B0F8461038
:1048500000290AD100F03BB80A6842F480520A608D
:104860000068416821F0800141607047C38F826B0E
:104870000168022B07D31288CA60816B891C81638F
:10488000C18F891E06E012780A73816B491C81630F
:10489000C18F491EC187C18F002917D1816AB1F527
:1048A000005F016809D04A6822F080024A60B0F8CF
:1048B000461000290AD100F00AB80A6842F4805272
:1048C0000A600068416821F080014160704710B5BE
:1048D0000446FDF7C5F902462068416821F0200131
:1048E00041606421204600F0C1F818B1206E40F00C
:1048F0002000206621688868C043C2064FF001008E
:1049000009D484F85D00206E40F0020020664FF666
:10491000EF70886003E0216E29B184F85D002046C5
:10492000FEF7DFF910BD94F85D1084F85D000429EE
:10493000204602D0FEF72EFF10BDFEF78BFC10BD07
:1049400010B504460068416821F060014160FDF740
:1049500087F902466421204600F04EF818B1206E17
:1049600040F020002066012084F85D002068816806
:10497000C943C90607D4216E41F0020121664FF6F2
:10498000EF71816001E0206E18B12046FEF7A9F9B1
:1049900010BD2046FEF75EFC10BD38B50446FDF79D
:1049A0005FF902462068416821F0A001416064215E
:1049B000204600F05BF818B1206E40F02000206621
:1049C000A06818B92068C16880680090012084F848
:1049D0005D00206E0028204602D0FEF782F938BD27
:1049E000FEF7CEFE38BD10B5806A0021A0F8461053
:1049F000C187FEF776F910BD2DE9F84304464068FB
:104A00004FF48276154689464FF400474FF480688C
:104A1000B04209D1A068B84201D0404504D1206815
:104A2000016821F0400101604B46002280212046B0
:104A3000009500F09FFB80B96068B04214D1A06877
:104A4000B84201D040450FD14B4600224FF4C0611F
:104A50002046009500F024FB30B1206E40F020008D
:104A600020660320BDE8F8830020FBE7F8B5154673
:104A70000E460B460092044600224FF4C05100F04F
:104A80000FFB88B93346002280212046009500F0B4
:104A900071FB48B9334600224FF4C06120460095AF
:104AA00000F0FEFA002804D0206E40F020002066BE
:104AB0000320F8BD0168C968026C1180016C891C73
:104AC0000164B0F84610491EA0F84610B0F8461030
:104AD0004FF40052012907D1816A914204D1016843
:104AE0000B6843F480530B60B0F84610002904D1E2
:104AF000816A914202D10249C1647047FFF720BF29
:104B0000054B0008016882B0CA6800924A6822F02A
:104B100060024A6002B0FFF713BF00000168097B22
:104B2000026C1170016C491C0164B0F84610491EFA
:104B3000A0F84610B0F846104FF40052012907D1F2
:104B4000816A914204D101680B6843F480530B6081
:104B5000B0F84610002904D1816A914202D102497D
:104B6000C1647047FFF7ECBE6D4B0008016882B06E
:104B7000097B0091816C491E816402D102B0FFF76C
:104B8000DFBE02B07047816B02680988D160816B1B
:104B9000891C8163C18F491EC187C18F00290AD139
:104BA000816AB1F5005F04D101680A6842F480525D
:104BB0000A60FFF7F2BE7047816B026809781173D3
:104BC000816B491C8163C18F491EC187C18F002938
:104BD0000AD1816AB1F5005F04D101680A6842F424
:104BE00080520A60FFF7D9BE7047000010B5024836
:104BF000FEF760F8002010BD84000020FCF714BE12
:104C0000F8B50546154C00200090154EE068A8B98F
:104C100030684FF47A71B0FBF1F00090FDF720F8A6
:104C20000746009801E0401E00900028FBD1FDF7E8
:104C300017F8C01BE06001D10120E060094930682D
:104C4000B0FBF1F0E168B0FBF1F045432846009578
:104C500001E0401E00900028FBD1F8BD00000020BC
:104C60002800002040420F0003488168012901D13B
:104C700000218160704700000000002010B590BB4B
:104C80001C4C1B482060204600F036F84FF4827020
:104C9000606000204FF47061C4E902014FF40071BC
:104CA0002061C4E905010821C4E907106062A0621F
:104CB000E0622046FEF794F810B14FF0FF3010BDCF
:104CC000002211460720FDF78BF90720FDF77AF93E
:104CD000002211463320FDF783F93320FDF772F9E6
:104CE0000A20FFF78DFFBDE8104000F00BB900006F
:104CF000003C0040840000202DE9F0413C4886B093
:104D0000816D41F400418165816D01F4004105919F
:104D1000C16C41F00201C164C16C01F00201059156
:104D2000C16C41F00401C164C16C01F00401059142
:104D3000C16C41F01001C164C06C2E4E00F0100037
:104D40004FF400540590002221463046FCF782FFC4
:104D50000125CDE9004500240294694630460394BC
:104D6000FCF77EFE022624480096CDE90104234F7D
:104D7000694638460394FCF773FE28020090CDE99B
:104D800001540394694638460494FCF769FE0122F5
:104D900011463846FCF75EFF0095CDE9015469469F
:104DA00038460395FCF75CFEA802CDE9000602AA8E
:104DB0000627DFF84C8082E8B00069464046FCF7E1
:104DC0004FFE2803CDE9000602AA694682E8B0003A
:104DD0004046FCF745FEE8020090CDE90165CDE9CB
:104DE000035769464046FCF73BFE06B0BDE8F0813C
:104DF000001002400004004800001110001000489C
:104E0000000800482DE9F84F1546DFF8E4A0894670
:104E100080460122002411465046FCF71BFF032068
:104E2000FFF7EEFEFCF71CFF07464FF0FF3B314E4D
:104E300009E000BFFCF714FFC11BA94203D96FF0C2
:104E4000020000F05BB8B0680128F3D00022012115
:104E500057465046FCF7FEFE0F20FFF7D1FEBA463C
:104E600039E04C4502DBB9F1000F3AD10120306046
:104E7000024669462048FEF76FF930B1012211461B
:104E80005046FCF7E7FE5846DBE7FCF7E9FE07462D
:104E900005E000BFFCF7E4FEC11BA94202D8306860
:104EA0000128F7D09DF8001088F800109DF8011037
:104EB000A41C88F8011024B208F10208B4F5FA6FB6
:104EC00009DB012211465046FCF7C4FE00F01AF837
:104ED0006FF00300B5E702215046FCF7B6FE01284B
:104EE000BFD0012211465046FCF7B4FE2046A8E789
:104EF00000100048000000208400002018BCBDE81D
:104F0000E08F00002DE9FC5FFCF7AAFE324D8046E1
:104F100000244FF48076224631462846FCF79AFE5C
:104F20000A20FCF781FC012231462846FCF792FE5C
:104F30004FF4FA70FCF778FC002201212846FCF7B8
:104F400089FE0F20FFF75CFE4FF0FF3A6E464FF6EA
:104F5000FF794FF4803717E031194B4601221F4883
:104F6000FDF7CEFFA41C8346E4B2FCF779FEA0EB6C
:104F70000800B84202D2BBF1000F05D00122114651
:104F80002846FCF767FE22E002212846FCF75DFE7A
:104F90000128E1D0012211462846FCF75BFE9DF86E
:104FA0000000152813D19DF8010015280FD19DF898
:104FB00002000D280BD19DF803000A2807D19DF8A7
:104FC00004003E2803D19DF80500202802D0504659
:104FD00000F006B80020FBE7001000488400002025
:104FE0003CBCBDE8C09F00002DE9F84F0C4682464E
:104FF00091461646FCF734FE05464FF0FF37DFF8C2
:105000008C8007E0FCF72CFE401BB04202D93846EA
:1050100000F042B802214046FCF717FE0128F1D10A
:105020001B4E0125B560002229464046FCF712FEC2
:105030000F20FFF7E5FD012C0FD97560620851467E
:105040001448FEF741FB28B1012211464046FCF707
:1050500001FEDCE7484601F021F8E00713D00AEB37
:10506000040010F8010C8DF800000A208DF80100F2
:105070007560012269460748FEF726FB0028E3D148
:10508000484601F00BF820B2C2E7000000100048CB
:10509000000000208400002018BCBDE8E08F000064
:1050A0002DE9FC47994617460E4604460A9DFCF733
:1050B000D7FD411BA9EB0105FCF7D2FD80462A482C
:1050C0004FF4C06A0068C0EBC00000EB8000000D28
:1050D0006843009040E0564502D10FB9007B019033
:1050E000B9F1FF3F38D0FCF7BBFDA0EB0800A842A8
:1050F00003D215B1009860B32CE02068416821F01C
:10510000E00141606068B0F5827F0BD1A068B0F526
:10511000004F02D0B0F5806F04D12068016821F003
:1051200040010160A06AB0F5005F09D12068016804
:1051300021F4005101602068016841F400510160D0
:10514000012084F85D00002084F85C00032000F05A
:105150000DB80025401E0090206881683140B9429A
:10516000B9D10020F3E70000280000200CBCBDE806
:10517000F08700002DE9F8431E4691468846044614
:10518000089DFCF76DFD401B351AFCF769FD0746CD
:1051900025480068C0F3CB30684338E0701C37D036
:1051A000FCF75EFDC01BA84203D215B1009860B3A6
:1051B0002CE02068416821F0E00141606068B0F5B2
:1051C000827F0BD1A068B0F5004F02D0B0F5806FA0
:1051D00004D12068016821F040010160A06AB0F5A7
:1051E000005F09D12068016821F400510160206846
:1051F000016841F400510160012084F85D00002045
:1052000084F85C000320BDE8F8830025401E009070
:105210002068816838EA010004D000214945BDD1E9
:105220000020F0E70121F9E7280000207047FCF793
:1052300061BE00000D48016841F4700101600C4836
:10524000016841F001010160002181600268094BA1
:105250001A4002608214C260026822F48022026056
:1052600081610249C00380390860704788ED00E021
:1052700000100240FFFFF6EA0148FEF71EBB0000E7
:10528000441800200148FEF718BB000098170020C2
:105290002DE9F0470268264B264D274E274F284C14
:1052A0004FF0804A984209D0504507D0A84205D017
:1052B000B04203D0B84201D0A04204D122F0700C19
:1052C0004A6842EA0C02DFF87CC0DFF87C80DFF835
:1052D0007C9098420FD050450DD0A8420BD0B042E0
:1052E00009D0B84207D0A04205D0604503D0404560
:1052F00001D0484503D122F44075CA682A434D695C
:1053000022F080022A4302608A68C2620A688262CE
:10531000984207D0A04205D0604503D0404501D057
:10532000484501D10969016301214161BDE8F08768
:10533000002C01400004004000080040000C004028
:105340000034014000400140004401400048014059
:1053500090F82810C90706D001684A68C36A22F489
:1053600000321A434A6090F82810890706D5016870
:105370004A68036B22F480321A434A6090F828107E
:10538000490706D501684A68436B22F480221A4314
:105390004A6090F82810090706D501684A68836BAF
:1053A00022F400421A434A6090F82810C90606D534
:1053B00001688A68C36B22F480521A438A6090F8AD
:1053C0002810890606D501688A68036C22F4005209
:1053D0001A438A6090F82810490611D501684A6876
:1053E000436C22F480121A434A60416CB1F5801F6D
:1053F00006D101684A68836C22F4C0021A434A60ED
:1054000090F82810090606D501684A68C06C22F495
:10541000002202434A607047F8B500260446C0F8EF
:105420008C60FCF71DFC0546206800686FF07E4725
:10543000000708D52B4600224FF4001120460097A4
:1054400000F068F960B92068006840070AD52B466B
:1054500000224FF480012046009700F05BF908B16C
:105460000320F8BD2020C4F88400C4F8880044F864
:105470006C6F00202675F8BD2DE9F04104460168E7
:1054800080682269E3691043626900251A4310436A
:10549000DFF850C20A68944B1A4002430A60206841
:1054A0004168E26821F44051114341602168A069DC
:1054B000614501D0226A10438A688C4B1A4002432E
:1054C0008A602068C16A626A21F00F011143C162DB
:1054D0008749236887488B420DD1D0F8880010F0A7
:1054E000030006D0012867D0022854D0032851D1E8
:1054F00064E001204FE080498B420BD1D0F8880056
:1055000010F00C0047D0042845D0082852D00C28B1
:1055100040D153E079498B420BD1D0F8880010F08C
:10552000300038D0102847D0202843D0302831D13F
:1055300044E073498B420BD1D0F8880010F0C000D2
:1055400029D0402838D0802834D0C02822D135E056
:105550006C498B420ED1D0F8880010F440701AD0FC
:10556000B0F5807F28D0B0F5007F23D0B0F5407F24
:1055700010D123E063450DD1D0F8880010F44060CD
:1055800009D0B0F5806F17D0B0F5006F12D0B0F52C
:10559000406F13D010205C4A5C4F00264FF400414E
:1055A000634539D160B102280DD004280DD00828F8
:1055B00031D10EE00220EEE70420ECE70820EAE714
:1055C000FDF746F803E0114603E0FDF765F801003A
:1055D0007DD0606A37F810206768B1FBF2F007EB06
:1055E000470383426CD8B0EB073F69D800230846D5
:1055F0001946FAF701FE090241EA10610202780831
:10560000101871413A460023FAF7F6FD404AA0F51A
:105610004071914259D953E0E3694FF6EF788B42DC
:105620002DD109284CD2DFE800F005080D4B274B9F
:105630004B4B0E00FDF70CF801E0FDF71BF80100E5
:1056400001D144E01146606A37F81000B1FBF0F078
:105650004100606801EB5001B1FBF0F080B2A0F1B5
:10566000100141452CD84FF6F0710140C0F34200C3
:1056700001432068C1602AE0FDF70EF8DFE7092842
:105680001ED2DFE800F005080D1D1F1D1D1D0E00B8
:10569000FCF7DEFF01E0FCF7EDFF010001D116E0B1
:1056A0001146606A37F81000B1FBF0F1606801EB59
:1056B0005001B1FBF0F080B2A0F11001414504D9D6
:1056C000012504E0FCF7E8FFE7E72168C860012056
:1056D000A4F86A0024F8680F2846A660E660BDE8D2
:1056E000F081000000800040F369FFCFFFF4FF115C
:1056F00000380140001002400044004000480040D3
:10570000004C0040005000400024F400EC6400080D
:10571000FFFC0F002DE9F0479A4617460E46044657
:105720004FF000094FF02008089D39E0681C37D081
:10573000FCF796FAA0EB0A00A84222D80DB3206825
:10574000016849072CD5C069C043000528D42168E9
:105750004FF4006008622068016821F4D071016094
:105760002068816821F001018160C4F88480C4F858
:105770008880C4F88C8000BF84F880900320BDE846
:10578000F0872068016821F4D07101602068816889
:1057900021F001018160C4F88480C4F88880EBE7BF
:1057A0002068C06936EA000004D00020B842BDD0AD
:1057B0000020E4E70120F9E7FEE70000134610B5FA
:1057C0000A46014601240548FBF7B2F820B9034810
:1057D000FBF71EF900B90024204610BDE8000020A8
:1057E00070B5054601240648FBF74AF9012805D1A2
:1057F000034880300024D0F855002860204670BD52
:10580000E800002010B5014601240348FBF7E2F848
:1058100000B90024204610BDE80000201CB509494D
:105820000948CDE900010124084B094A09490A4801
:10583000FBF744F920B90848FBF702F900B9002446
:1058400020461CBD054E0008E94F0008FD4B00082E
:10585000ED4B00087D4C0008E800002030B585B015
:105860000124DDE90825ADF804208DF80200ADF82B
:10587000065009B1012000E000208DF800001878E2
:105880008DF8080058788DF8090098788DF80A008E
:10589000D8788DF80B0069460348FBF77DF900B90D
:1058A000002405B0204630BDE80000207CB501246E
:1058B000069DCDE9003513460A4601460348FBF72D
:1058C0000FF900B9002420467CBD0000E80000204C
:1058D0000FB4054B10B503A9044A029800F03CF838
:1058E00010BC5DF814FB0000E95D0008800000209A
:1058F0000FB4084B10B504A902AA039800F02CF8C5
:10590000044602A9002000F055FA204610BC5DF8BC
:1059100014FB0000B55D00080907090E002804DB30
:1059200000F1E02080F80014704700F00F0000F153
:10593000E02080F8141D704702E008C8121F08C15B
:10594000002AFAD170477047002001E001C1121F00
:10595000002AFBD1704700002DE9FF4F8DB00F46A4
:105960000546002606E025280BD0DDE90F129047FA
:105970006D1C761C28780028F5D111B0304600F057
:10598000EDB90024A246A1460122E94900E0044302
:1059900015F8013F203B02FA03F00842F7D12878BE
:1059A0002A2810D06FF02F022878A0F130010929A1
:1059B00014D80AEB8A0102EB410144F0020400EB27
:1059C000010A6D1CF0E701CF5FEA000A03D544F439
:1059D0000054CAF1000A44F002046D1C28782E28F5
:1059E00017D115F8010F44F004042A280ED06FF0E7
:1059F0002F022878A0F1300109290AD809EB890182
:105A000002EB410100EB01096D1CF2E757F8049B22
:105A10006D1C28786C280FD006DC4C2817D068281D
:105A20000DD06A2814D104E0742810D07A280FD140
:105A30000DE044F400140AE044F4801401E044F45E
:105A400040146978814202D104F580146D1C6D1CEC
:105A500028786E281ED00CDC632830D004DC0028A7
:105A60008BD0582811D19FE0642867D069280CD1C9
:105A700064E073282DD004DC6F2872D0702804D124
:105A800094E075286ED078286DD0DDE90F1290472C
:105A9000761C4BE1C4F30250022806D0032809D03B
:105AA000042801CF09D0066040E101CFF117C0E919
:105AB00000613BE101CF068038E1067036E117F85E
:105AC000040B8DF8000000208DF80100EB4601204A
:105AD00003E057F804BB4FF0FF3061074FF00001BF
